:100000000C9434000C9451000C9451000C94510049
:100010000C9451000C9453000C9451000C9451001A
:100020000C9451000C9451000C9451000C94590004
:100030000C9451000C9451000C9451000C945100FC
:100040000C9451000C9451000C9451000C945100EC
:100050000C9451000C9451000C9451000C945100DC
:100060000C9451000C94510011241FBECFEFD8E026
:10007000DEBFCDBF11E0A0E0B1E0EEE0F2E002C0F3
:1000800005900D92A230B107D9F721E0A2E0B1E0CE
:1000900001C01D92A730B207E1F70E94ED000C9459
:1000A00005010C9400008F9381E0809300018F91F3
:1000B00018958F9381E0809302018F91189591E0BC
:1000C000892790E00895892B21F081E060E0782F66
:1000D000089580E061E0FBCF0E94CC000E945F00A9
:1000E0000E946300609304017093050180930601F0
:1000F00010920301089584E190E00E94E1000E94C3
:10010000CC000E945F000E94630060930401709322
:10011000050180930601089580910301882379F0F9
:100120006091040170910501809106010E94D10047
:100130008091030191E0892780930301089560E095
:1001400070E080E0F3CF84B1886384B985B1877CA7
:1001500085B95598E8E6F0E0808184608083EDE61B
:10016000F0E0808180628083089510928000E1E851
:10017000F0E0108280818860808380818560808348
:1001800084E89EE19093890080938800EFE6F0E098
:10019000808182608083089589B185FB882780F9FA
:1001A0000895662341F02D9A772339F02C9A8823FD
:1001B00031F02B9A08952D98F7CF2C98F8CF2B98E3
:1001C00008959C012150310908F408958FE99FE0BA
:1001D0000197F1F700C00000F5CF0E94A3000E9434
:1001E000B50078940E946C0080910001882321F072
:1001F0000E947B0010920001809102018823A1F3EC
:0E020000109202010E948C00EFCFF894FFCF05
:02020E000100ED
:00000001FF
